:020000040800F2
:1000000078BC0120795500088D0600088F0600088D
:1000100091060008930600089506000800000000FD
:10002000000000000000000000000000970600082B
:1000300099060008000000009B0600089D060008C5
:100040009355000893550008935500083155000852
:1000500093550008935500089355000893550008E0
:1000600093550008935500089355000893550008D0
:1000700093550008935500089355000893550008C0
:1000800093550008935500089355000893550008B0
:1000900093550008935500089355000893550008A0
:1000A0009355000893550008935500089355000890
:1000B000935500088909000803910008935500082A
:1000C0009355000893550008935500089355000870
:1000D000935500089D8A0008935500089355000821
:1000E00093550008095500089355000893550008DA
:1000F0009355000893550008935500089355000840
:10010000935500089355000893550008935500082F
:10011000935500089355000893550008935500081F
:10012000935500089355000893550008935500080F
:1001300093550008C14C00089355000893550008DA
:1001400093550008935500089355000893550008EF
:1001500093550008935500089355000893550008DF
:1001600093550008935500089355000893550008CF
:1001700093550008935500089355000893550008BF
:10018000935500089355000800F002F800F06DF850
:100190000AA090E8000C82448344AAF10107DA45E2
:1001A00001D100F062F8AFF2090EBAE80F0013F0C7
:1001B000010F18BFFB1A43F001031847F80A0300A8
:1001C000180B03000A444FF0000C10F8013B13F029
:1001D000070408BF10F8014B1D1108BF10F8015BA0
:1001E000641E05D010F8016B641E01F8016BF9D193
:1001F00013F0080F1EBF10F8014BAD1C0C1B09D1EA
:100200006D1E58BF01F801CBFAD505E014F8016B5B
:1002100001F8016B6D1EF9D59142D6D370470000ED
:100220000023002400250026103A28BF78C1FBD8FF
:10023000520728BF30C148BF0B607047642914F0D3
:10024000C984752914F0C684782914F0FD846329C3
:1002500015F02180732915F02680002070471FB506
:1002600015F03DFD1FBD10B510BD15F037F8114656
:10027000FFF7F5FF00F098F815F055F803B4FFF715
:10028000F2FF03BC08F0ACFBF0B5A84905468BB003
:100290004FF478400880A64EE8074FF6FF774FF0FE
:1002A00010042AD000971E2132886E23084604F0DD
:1002B000F7F9A0A0CDE900401E211023C82208466E
:1002C00004F0FEFBA0A0CDE900401023C82232219B
:1002D0001E2004F0F5FBA1A0CDE900401023C822A8
:1002E00046211E2004F0ECFBA0A0CDE90040102325
:1002F000C8225A211E2004F0E3FBA80752D500971C
:10030000738832886E211E2004F0CAF99AA0CDE9C4
:1003100000401023C8226E211E2004F0D1FB9B4810
:10032000817D427B0229017BCDE90012C37A827A6A
:1003300012D097A102A814F0E9FB02A8CDE9004071
:100340001023D22282211E2004F0BAFB04F0B0FC5C
:10035000800703D594A002E098A1EBE79CA0CDE92B
:1003600000401023C82296211E2004F0A9FB9DA066
:10037000CDE900401023C822AA211E2004F0A0FBD2
:100380009EA0CDE900401023C822BE211E2004F00B
:1003900097FBA0A0CDE900401023C822D2211E2047
:1003A00004F08EFB0BB0F0BD1CB508F0CDFA4FF495
:1003B000A06005F001F94FF4E13008F019FB99480D
:1003C00041685420884700F093FA00F027FA00F0C3
:1003D0000CFF04F01FFD04F0F7FE04F0D5FF04F05D
:1003E00089FE04F011FF40F2473140F2E73000F09F
:1003F0009FFA002014F0A8FA012014F0A5FA0220B8
:1004000014F0A2FA49494FF4784008800120FFF720
:100410003BFF102684A0CDE900603346C8226E2140
:100420001E2004F04DFB4FF6FF754FF496671BE05E
:1004300081A0CDE900601023C8226E211E2004F0A7
:100440003FFB384608F0AEFA7E23E6226E211E20DE
:10045000009504F025F97DA0CDE900601023C822A5
:100460006E211E2004F02CFB09F02FFB0028DFD1A9
:1004700041A0CDE900601023C8226E211E2004F0A7
:100480001FFB75A0CDE900601023C82282211E2029
:1004900004F016FB3D4F01E009F0E3FBB87D0228B4
:1004A00002D0B87DFF28F7D10220FFF7EDFE0BF058
:1004B000EDFC6F4F002000F0CBF9012804D002289A
:1004C00005D0032808D121E00AF0DEF901E009F0A7
:1004D00072FE0320FFF7D8FE09F0C3FB022008F0EC
:1004E00061FA641CE4B2642C13D0C82CE2D1E62279
:1004F0000024F62311461E20009504F0D1F8D7F809
:10050000A40280B10020C7F8A402D3E70AF07EFC61
:10051000DFE758A0CDE900601023C822E6211E20A5
:1005200004F0CEFAC6E70120EDE700001600002037
:10053000F80200204578706C6F7265722053544D3C
:10054000333246340000000045746865726E65748D
:10055000206C7749502054657374000041544F4D0E
:1005600040414C49454E54454B0000003230313437
:100570002F382F31350000006C77495020496E69C3
:1005800074205375636365737365640040040020D1
:100590005374617469632049503A25642E25642E92
:1005A00025642E256400000045746865726E6574CC
:1005B0002053706565643A3130304D0044484350F3
:1005C0002049503A25642E25642E25642E2564008A
:1005D00045746865726E65742053706565643A3160
:1005E000304D00004B4559303A544350205365720A
:1005F0007665722054657374000000004B455931D4
:100600003A54435020436C69656E7420546573748A
:10061000000000004B4559323A5544502054657350
:1006200074000000E40000206C77495020496E6996
:1006300074696E672E2E2E006C77495020496E69C2
:1006400074206661696C65642100000052657472F3
:1006500079696E672E2E2E00444843502049502061
:10066000636F6E666967696E672E2E2E000000004C
:1006700000804242506C656173652063686F6F73E0
:10068000652061206D6F6465210000007047FEE702
:10069000FEE7FEE7FEE770477047704770470000CF
:1006A0000CB50022544900920192086840F4803051
:1006B00008604FF4A043086800F4003001900098EF
:1006C000401C0090019810B900989842F3D1086836
:1006D000800334D50120019047484030026842F041
:1006E000805202604548026842F44042026042483B
:1006F000083002680260026842F400420260026848
:1007000042F4A0520260031F3D4A1A600A6842F098
:1007100080720A600A689201FCD53A4940F205727B
:100720000A60016821F003010160016841F00201E3
:1007300001600168C1F381010229FAD10CBD019267
:100740000CBD314810B5016841F4700101602A48C0
:10075000016841F001010160274A0021083211605F
:1007600002682A4B1A400260031D294A1A60026877
:1007700022F48022026020480C300160FFF790FFD5
:1007800021494FF000608039086010BD70B51A4DE6
:10079000083528681F4B204910F00C0004D05E106B
:1007A000042803D0082803D00B601BE00E6019E07A
:1007B000114A121D1068C0F38054106800F03F0009
:1007C00014B1B6FBF0F001E0B3FBF0F0136812686F
:1007D000C3F388135843C2F30142521C5200B0FBCA
:1007E000F2F0086028680C4AC0F30310121D105C78
:1007F0000A68C2400A6070BD0038024000700040C4
:1008000008544007003C024088ED00E0FFFFF6FE80
:10081000103000240024F400000000201CB5012149
:10082000112005F090F91C20009000208DF80400A4
:1008300001248DF807406946284804F081FF022012
:100840008DF8070000946946254804F079FF1CBD27
:1008500070B5244C244E254D012108B1217001E0D2
:10086000207860B1D5F8100270B1D5F80C0258B1FB
:10087000D5F8080240B1D6F80002012804D0D5F816
:10088000100201281BD026E00A2008F08BF8002077
:100890002070D5F8100250B1D5F80C0248B1D5F847
:1008A000080240B1D6F80002012806D013E001206A
:1008B00070BD022070BD032070BD042070BDD5F84E
:1008C0000C02012807D1D5F80802012803D1D6F877
:1008D000000200B92170002070BD0000001002402D
:1008E000000002401400002000004042000042428C
:1008F0007CB50121202005F026F901208DF80400A7
:1009000000208DF806008DF807000320074D4FF4F6
:10091000C0648DF8050000946946284604F010FF75
:100920002146284604F071FF7CBD000000140240FF
:100930007FB50D4604460121022005F022F9002171
:100940000194ADF80050194CADF80210ADF8081044
:100950006946204605F09AFA01221146204605F024
:100960001EFE0121204605F009FB1D208DF80C001C
:1009700001208DF80D0003218DF80E108DF80F0069
:1009800003A804F01EFE7FBD10B5084C01212046CF
:1009900005F019FE012803D105490A680A320A60E8
:1009A0002046BDE81040012105F019BE00040040BA
:1009B000E801002001B5BDF80000ADF80000BDF869
:1009C00000004FF0D841A1F87E0008BD01B5BDF888
:1009D0000000ADF80000BDF800004FF0D841A1F8CC
:1009E000800008BD08B54FF0D840B0F88000ADF8E1
:1009F0000000BDF8000008BD03B5BDF800204FF0B1
:100A0000D84020F87E2F41800CBD01B5BDF8000014
:100A1000FFF7D0FF052007F0AEFFBDE80840E1E793
:100A2000FB484FF0D8410089A1F87E007047C0F321
:100A30004511C20AC00200EB4110104480B2704759
:100A4000401EC0B2FCD27047F0B5F14E0C460246D3
:100A5000050AB1883046A1F5134340894FEA142CAA
:100A6000413B15D0A1F5A643103B11D0B646B37952
:100A70003688A1F5D047B61A761E043F12D07746C5
:100A8000A1F5A04EBEF5A26E1FD0012B39D039E0E2
:100A9000FFF790FF2846FFF799FFD0B2FFF796FFC8
:100AA000B0890CE07546012B00D1B2B2FFF782FF8E
:100AB000100AFFF78BFFD0B2FFF788FFA889FFF776
:100AC00079FF6046FFF782FF17E0FFF773FF2846C4
:100AD000FFF77CFF7889401C80B2FFF76BFFD0B234
:100AE000FFF774FFB889FFF765FF6046FFF76EFFF9
:100AF000B889401C80B2FFF75DFFE0B2BDE8F0406E
:100B000064E7B2B21146FFF777FFB8892146BDE826
:100B1000F04071E7F0B5BE4E00252C463288824287
:100B200002D972888A4201D80020F0BDFFF78CFFFD
:100B3000B08849F2413C45F2103245F21057604509
:100B400005D0A0F5D041043901D0904201D12E202A
:100B500005E0B84202D14FF4385000E02220FFF700
:100B600029FFB188A1F51340203803D10220401E8F
:100B7000C0B2FCD24FF0D8400223B0F880005B1E18
:100B8000DBB2FCD2614503D0914201D0B94209D118
:100B900002235B1EDBB2FCD2C3B24FF6FF750446E4
:100BA00005EA0325A1F51343253BBED0A1F58A43F1
:100BB000353BBAD01B1DB8D0A1F53543053BB4D0A9
:100BC000B3F58053B1D0614503D0914201D0B94211
:100BD00007D16FF30A00A90A40EA411040EAD42085
:100BE000F0BDBDE8F04022E789488088A0F51341B8
:100BF00041390ED0A0F5D04104390AD0A0F5A64164
:100C0000103906D0B1F5007105D040F273110720FC
:100C1000F2E6292001E04FF42450CBE67C4880889E
:100C2000A0F5134141390DD0A0F5D041043909D0C8
:100C3000A0F5A641103905D0B1F5007104D000210E
:100C40000720D9E6282001E04FF42050B2E6F0B5A5
:100C50006F4D00242946AB79898846F60402012BA2
:100C600018D1914216D0082814D2DFE800F004060B
:100C7000080A0C0E101206200CE007200AE00420DF
:100C800008E0052006E0012004E0002002E0032047
:100C900000E00220A1F5134745F2103345F210564B
:100CA000413F05D0914203D0994201D0B14277D162
:100CB000082812D2DFE800F0110406080A0C0E1012
:100CC00080240AE0402408E0C02406E0202404E058
:100CD000602402E0A02400E0E024B14202D14FF4FD
:100CE000585000E03620994203D0B14201D044F080
:100CF0000804914201D144F002042146FFF77CFE32
:100D0000A0064ED4A87901284BD02888698888424B
:100D100001D929806880A888B042688946D1FFF748
:100D200049FE0020FFF752FE6889401C80B2FFF7A1
:100D300041FE0020FFF74AFE6889801C80B2FFF761
:100D400039FE2888401EC0F30F20FFF73FFE688958
:100D5000C01C80B2FFF72EFE2878401EC0B2FFF7FD
:100D600035FEA889FFF726FE0020FFF72FFEA88991
:100D7000401C80B2FFF71EFE0020FFF727FEA88967
:100D8000801C80B2FFF716FE6888401EC0F30F205B
:100D9000FFF71CFEA889C01C80B2FFF70BFE27E0FE
:100DA0002CE0288869888842B3D3B4E7FFF702FEB5
:100DB0000020FFF70BFE0020FFF708FE2888401EEA
:100DC000C0F30F20FFF702FE2878401EC0B2FFF7E5
:100DD000FDFDA889FFF7EEFD0020FFF7F7FD0020DD
:100DE000FFF7F4FD6888401EC0F30F20FFF7EEFD0B
:100DF000A878BDE8F040401EC0B2E7E5082814D24C
:100E0000DFE800F004080A130C0E101230240CE086
:100E1000F8020020102408E0202406E0382404E032
:100E2000282402E0182400E0082444F48051BDE89E
:100E3000F0400320E0E500B5FFF706FEFFF7F0FD08
:100E4000FE484FF0D8410088A1F8800000BD2DE990
:100E5000F041FB4D904602464FEA102CAF882846E1
:100E60000C460E0A4089A7F51341413913D0A7F566
:100E7000A64110390FD0B1F5007110D02B46A7F55F
:100E8000D04C99791B889B1A5B1EBCF1040C1FD0B7
:100E9000012932D032E0FFF78DFD60461EE0FFF7FA
:100EA00089FD6046FFF792FD6889401C80B2FFF71C
:100EB00081FDD0B2FFF78AFDA889FFF77BFD3046A0
:100EC000FFF784FDA889401C80B2FFF773FD10E096
:100ED000012900D19AB2FFF76DFD100AFFF776FDE8
:100EE000D0B2FFF773FDA889FFF764FD3046FFF726
:100EF0006DFDE0B2FFF76AFD07E09AB21146FFF719
:100F00007BFDA8892146FFF777FD4FF0D84029895E
:100F1000A0F87E10A0F88080BDE8F0812DE9F04FA8
:100F2000C7492C242A2589882B2645F2105A4FF4CC
:100F3000305B4FF4285E4FF0F00C49F241394FF42A
:100F4000A07745F2103246F6040378B1BC484FF062
:100F50000108494580F806800780A0F802C001D04A
:100F6000914233D10481458186814BE0B4484FF0F2
:100F70000008494580F80680A0F800C0478003D0EB
:100F8000994201D091420AD10481458186819942DA
:100F900001D091423ED107804FF4F0710DE05145F0
:100FA0000DD1A0F808B0A0F80AE04FF42C518181CF
:100FB0004FF4F07101804FF4487141802AE0222102
:100FC0000181202141812121818123E0994203D1A6
:100FD00004814681858115E051450DD1A0F808B006
:100FE000A0F80AE04FF42C5484814FF44874048034
:100FF0004FF4F074448005E02224048121244481CC
:1010000020248481994201D0914203D14FF4F071A0
:1010100001804780BDE8F04F002018E62DE9F04739
:1010200006461044401E84B2C818DFF814C2401EA1
:101030000D4682B24FEA1128BCF804006146370A17
:101040004989A0F51343413B2DD0A0F5A643103BA1
:1010500029D0A0F5D043043B25D0A0F5AA43103BEE
:101060003ED09CF8060001287FD0274631462C460A
:10107000944650204FF0510A4FF052094FF0530858
:10108000FFF7BAFC39465046FFF7B6FC2146484602
:10109000FFF7B2FC61464046FFF7AEFC29463046FA
:1010A000BDE8F047D0E40846FFF784FC3846FFF778
:1010B0008DFCF0B2FFF78AFC200AFFF787FCE0B254
:1010C000FFF784FCBCF80C00FFF774FC4046FFF708
:1010D0007DFCE8B2FFF77AFC100AFFF777FC3FE0EF
:1010E0000846FFF767FC3846FFF770FCBCF80A00BB
:1010F000401C80B2FFF75EFCF0B2FFF767FCBCF863
:101100000A00801C80B2FFF755FC200AFFF75EFC46
:10111000BCF80A00C01C80B2FFF74CFCE0B2FFF73D
:1011200055FCBCF80C00FFF745FC4046FFF74EFCB1
:10113000BCF80C00401C80B2FFF73CFCE8B2FFF7A3
:1011400045FCBCF80C00801C80B2FFF733FC100A91
:10115000FFF73CFCBCF80C00C01C80B2FFF72AFC77
:10116000BDE8F047D0B231E4FFE7BCF80000174615
:10117000021B521E801B401E294694B21FFA80FC9F
:1011800077E72DE9F0432E4F0646002438887D8806
:101190004543B888A0F5D041043902D1B879012877
:1011A00008D000210846FFF74FFCFFF739FC4FF04D
:1011B000D84016E00020B8714FF02A09A7F80A902D
:1011C0004FF02B08A7F80C800146FFF73DFC0120EB
:1011D000B871A7F80A80A7F80C90E6E7A0F880603D
:1011E000641CAC42FAD3BDE8F0832DE9F04FA1B006
:1011F000002401217A201F9404F0A5FC0121084657
:1012000004F0B5FC4FF400400F9001208DF8400031
:101210004FF0020A8DF841A08DF842408DF843004E
:101220000FA9084804F08CFA4CF233700F9002209A
:101230008DF840004FF0030B06E000001600002080
:10124000F8020020000402408DF841B00FA9FE48CA
:1012500004F076FA4FF680700F900FA9FB4804F067
:101260006FFA4FF48050FA4D0F900FA9284604F002
:1012700067FAA914F74E0F910FA9304604F060FAEF
:101280000C220021F04804F0CFFA0C220121EE4894
:1012900004F0CAFA0C220421EB4804F0C5FA0C222F
:1012A0000521E94804F0C0FA0C220821E64804F0C0
:1012B000BBFA0C220921E44804F0B6FA0C220A21F8
:1012C000E14804F0B1FA0C220E21DF4804F0ACFA38
:1012D0000C220F21DC4804F0A7FA0C220721DB487E
:1012E00004F0A2FA0C220821D84804F09DFA0C223E
:1012F0000921D64804F098FA0C220A21D34804F0B8
:1013000093FA0C220B21D14804F08EFA0C221146DC
:10131000CE4804F089FA0C220D21CC4804F084FA5E
:101320000C220E21C94804F07FFA0C220F21C74875
:1013300004F07AFA0C221146284604F075FA0C22C1
:101340001146304604F070FA0F20CDE91804182039
:10135000CDE91A041C941D9408201E94CDE91104B3
:10136000CDE9130415940620CDE9000416941794D2
:101370001020CDE9024004940002CDE90840059414
:1013800006948000CDE90A40079418A8CDE90C40E6
:1013900011A80E90684606F09CFA0121062006F07E
:1013A00011FB322007F0FEFA01210020FFF724FB99
:1013B000322007F0F7FA0020FFF727FBA64F4FF681
:1013C000FF7949F24134B88045F2103545F21056A4
:1013D00046F60408FF2804D3484502D0B0F5134F61
:1013E0005ED1D320FFF7E6FAFFF7FCFAB880FFF7EB
:1013F000F9FAB880FFF7F6FA09EA00204A46B88001
:10140000FFF7F0FAB9880843B880A04248D0BF205F
:10141000FFF7D0FAFFF7E6FAB880FFF7E3FAB880F3
:10142000FFF7E0FAB880FFF7DDFA02EA0020B880A3
:10143000FFF7D8FAB9880843B880404530D0D420A7
:10144000FFF7B8FAFFF7CEFAB880FFF7CBFAB8800B
:10145000FFF7C8FA02EA0020B880FFF7C3FAB9889C
:101460000843B880A8421BD04FF45A40FFF7A2FAB5
:10147000FFF7B8FAB8804FF45B40FFF79BFAFFF72D
:10148000B1FA02EA0020B8804FF45C40FFF792FA0C
:10149000FFF7A8FAB9880843B880B0F5004F0BD021
:1014A00080B2A04203D0A84201D0B04206D1CDF80C
:1014B00044B0CDF84CA00BE0BE80F8E7404503D027
:1014C000A0F54541053907D10A2011900C20139051
:1014D0000121062006F076FAB98860A013F00AFB15
:1014E000B888A0427ED1CF20FFF764FA0020FFF732
:1014F0006DFA1F98401C1F90C120FFF767FA30203B
:10150000FFF764FAED20FFF755FA6420FFF75EFA63
:101510000320FFF75BFA1220FFF758FA8120FFF74C
:1015200055FAE820FFF746FA8520FFF74FFA10201A
:10153000FFF74CFA7A20FFF749FACB20FFF73AFA87
:101540003920FFF743FA2C20FFF740FA0020FFF77D
:101550003DFA3420FFF73AFA0220FFF737FAF72076
:10156000FFF728FA2020FFF731FAEA20FFF722FAE6
:101570000020FFF72BFA0020FFF728FAC020FFF722
:1015800019FA1B20FFF722FAC120FFF713FA0120F6
:10159000FFF71CFAC520FFF70DFA3020FFF716FA07
:1015A0003020FFF713FAC720FFF704FAB720FFF740
:1015B0000DFA3620FFF7FEF94820FFF707FA3A2028
:1015C000FFF7F8F95520FFF701FAB120FFF7F2F91C
:1015D0000020FFF7FBF91A20FFF7F8F9B620FFF714
:1015E000E9F900E0A4E00A20FFF7F0F9A220FFF7F4
:1015F000EDF9F220FFF7DEF90020FFF7E7F92620EA
:10160000FFF7D8F90120FFF7E1F9E020FFF7D2F961
:101610000F20FFF7DBF92A20FFF7D8F92820FFF782
:10162000D5F90820FFF7D2F90E20FFF7CFF90820EF
:10163000FFF7CCF95420FFF7C9F9A920FFF7C6F945
:101640004320FFF7C3F90FE0000C024000100240F6
:101650000014024000180240F80200204C434420CD
:1016600049443A25780D0A000A20FFF7AFF90F2008
:10167000FFF7ACF90020FFF7A9F90020FFF7A6F962
:101680000020FFF7A3F90020FFF7A0F9E120FFF702
:1016900091F90020FFF79AF91520FFF797F9172025
:1016A000FFF794F90720FFF791F91120FFF78EF962
:1016B0000620FFF78BF92B20FFF788F95620FFF75C
:1016C00085F93C20FFF782F90520FFF77FF910200C
:1016D000FFF77CF90F20FFF779F93F20FFF776F944
:1016E0003F20FFF773F90F20FFF770F92B20FFF76A
:1016F00061F90020FFF76AF90020FFF767F9012080
:10170000FFF764F93F20FFF761F92A20FFF752F94C
:101710000020FFF75BF90020FFF758F90020FFF7E2
:1017200055F9EF20FFF752F91120FFF743F9A5E033
:1017300040457CD11120FFF73DF9142007F032F924
:10174000D020FFF737F90720FFF740F94220FFF7D5
:101750003DF91D20FFF73AF9D120FFF72BF90020C2
:10176000FFF734F91A20FFF731F90920FFF72EF9B6
:10177000D220FFF71FF90120FFF728F92220FFF7F9
:1017800025F9C020FFF716F91020FFF71FF93B20BD
:10179000FFF71CF90020FFF719F90220FFF716F9EF
:1017A0001120FFF713F9C520FFF704F90320FFF715
:1017B0000DF9C820FFF7FEF80020FFF707F92520F4
:1017C000FFF704F92120FFF701F90520FFF7FEF8E4
:1017D0000020FFF7FBF80A20FFF7F8F86520FFF775
:1017E000F5F82520FFF7F2F87720FFF7EFF8502003
:1017F000FFF7ECF80F20FFF7E9F80020FFF7E6F815
:10180000F820FFF7D7F80120FFF7E0F8FE20FFF7F8
:10181000D1F80020FFF7DAF80220FFF7D7F82020F0
:10182000FFF7C8F83620FFF7C5F8082000E02BE0E6
:10183000FFF7CCF83A20FFF7BDF85520FFF7C6F8C0
:101840002B20FFF7B7F80020FFF7C0F80020FFF7C4
:10185000BDF80120FFF7BAF83F20FFF7B7F82A20BC
:10186000FFF7A8F80020FFF7B1F80020FFF7AEF867
:101870000120FFF7ABF8DF20FFF7A8F8782007F08A
:1018800091F8292001F0FBBEA8427CD1ED20FFF7A2
:1018900091F80120FFF79AF8FE20FFF797F8EE2065
:1018A000FFF788F8DE20FFF791F82120FFF78EF888
:1018B000F120FFF77FF80120FFF788F8DF20FFF71E
:1018C00079F81020FFF782F8C420FFF773F88F2013
:1018D000FFF77CF8C620FFF76DF80020FFF776F8D9
:1018E000E220FFF773F8E220FFF770F8E220FFF73D
:1018F0006DF8BF20FFF75EF8AA20FFF767F8B02069
:10190000FFF758F80D20FFF761F80020FFF75EF8A9
:101910000D20FFF75BF80020FFF758F81120FFF7C4
:1019200055F80020FFF752F81920FFF74FF8002074
:10193000FFF74CF82120FFF749F80020FFF746F8A1
:101940002D20FFF743F80020FFF740F83D20FFF778
:101950003DF80020FFF73AF85D20FFF737F8002048
:10196000FFF734F85D20FFF731F80020FFF72EF87D
:10197000B120FFF71FF88020FFF728F80020FFF7BD
:1019800025F88B2000E0FCE3FFF720F80020FFF7AC
:101990001DF89620FFF71AF80020FFF717F8B2207D
:1019A000FFF708F80020FFF711F80020FFF70EF806
:1019B0000220FFF70BF80020FFF708F80320FFF7DD
:1019C00005F80020FFF702F8B320FEF7F3FF002030
:1019D000FEF7FCFF0020FEF7F9FF0020FEF7F6FF00
:1019E0000020FEF7F3FF0020FEF7F0FF0020FEF7D7
:1019F000EDFF0020FEF7EAFF0020FEF7E7FF0020E2
:101A0000FEF7E4FF0020FEF7E1FF0020FEF7DEFF17
:101A10000020FEF7DBFF0020FEF7D8FF0020FEF7D6
:101A2000D5FF0020FEF7D2FF0020FEF7CFFF0020F9
:101A3000FEF7CCFF0020FEF7C9FF0020FEF7C6FF2F
:101A40000020FEF7C3FF0020FEF7C0FF0020FEF7D6
:101A5000BDFF0020FEF7BAFF0020FEF7B7FFB4205D
:101A6000FEF7A8FF8B20FEF7B1FF0020FEF7AEFFC8
:101A70009620FEF7ABFF0020FEF7A8FFA120FEF79F
:101A8000A5FF0020FEF7A2FFB520FEF793FF02207E
:101A9000FEF79CFF0020FEF799FF0320FEF796FF5C
:101AA0000020FEF793FF0420FEF790FF0020FEF7D2
:101AB0008DFFB620FEF77EFF0020FEF787FF002097
:101AC000FEF784FFB720FEF775FF0020FEF77EFFCC
:101AD0000020FEF77BFF3F20FEF778FF0020FEF797
:101AE00075FF5E20FEF772FF0020FEF76FFF642097
:101AF000FEF76CFF0020FEF769FF8C20FEF766FF03
:101B00000020FEF763FFAC20FEF760FF0020FEF729
:101B10005DFFDC20FEF75AFF0020FEF757FF702024
:101B2000FEF754FF0020FEF751FF9020FEF74EFF16
:101B30000020FEF74BFFEB20FEF748FF0020FEF7EA
:101B400045FFDC20FEF742FF0020FEF73FFFB820F4
:101B5000FEF730FF0020FEF739FF0020FEF736FFCA
:101B60000020FEF733FF0020FEF730FF0020FEF7D5
:101B70002DFF0020FEF72AFF0020FEF727FF0020A0
:101B8000FEF724FFBA20FEF715FF2420FEF71EFF04
:101B90000020FEF71BFF0020FEF718FF0020FEF7D5
:101BA00015FFC120FEF706FF2020FEF70FFF0020E3
:101BB000FEF70CFF5420FEF709FF0020FEF706FF9A
:101BC000FF20FEF703FF0020FEF700FFC220FEF714
:101BD000F1FE0A20FEF7FAFE0020FEF7F7FE0420D1
:101BE000FEF7F4FE0020FEF7F1FEC320FEF7E2FE52
:101BF0003C20FEF7EBFE0020FEF7E8FE3A20FEF761
:101C0000E5FE0020FEF7E2FE3920FEF7DFFE0020B1
:101C1000FEF7DCFE3720FEF7D9FE0020FEF7D6FEE9
:101C20003C20FEF7D3FE0020FEF7D0FE3620FEF764
:101C3000CDFE0020FEF7CAFE3220FEF7C7FE0020D0
:101C4000FEF7C4FE2F20FEF7C1FE0020FEF7BEFE09
:101C50002C20FEF7BBFE0020FEF7B8FE2920FEF781
:101C6000B5FE0020FEF7B2FE2620FEF7AFFE0020F4
:101C7000FEF7ACFE2420FEF7A9FE0020FEF7A6FE2C
:101C80002420FEF7A3FE0020FEF7A0FE2320FEF78F
:101C90009DFE0020FEF79AFE3C20FEF797FE0020F6
:101CA000FEF794FE3620FEF791FE0020FEF78EFE32
:101CB0003220FEF78BFE0020FEF788FE2F20FEF775
:101CC00085FE0020FEF782FE2C20FEF77FFE00201E
:101CD000FEF77CFE2920FEF779FE0020FEF776FE57
:101CE0002620FEF773FE0020FEF770FE2420FEF78C
:101CF0006DFE0020FEF76AFE2420FEF767FE00203E
:101D0000FEF764FE2320FEF761FE0020FEF75EFE74
:101D1000C420FEF74FFE6220FEF758FE0020FEF7BB
:101D200055FE0520FEF752FE0020FEF74FFE8420F0
:101D3000FEF74CFE0020FEF749FEF020FEF746FEBF
:101D40000020FEF743FE1820FEF740FE0020FEF7BD
:101D50003DFEA420FEF73AFE0020FEF737FE1820D5
:101D6000FEF734FE0020FEF731FE5020FEF72EFE77
:101D70000020FEF72BFE0C20FEF728FE0020FEF7C9
:101D800025FE1720FEF722FE0020FEF71FFE9520FD
:101D9000FEF71CFE0020FEF719FEF320FEF716FEEC
:101DA0000020FEF713FEE620FEF710FE0020FEF7EF
:101DB0000DFEC520FEF7FEFD3220FEF707FE0020D7
:101DC000FEF704FE4420FEF701FE0020FEF7FEFDB4
:101DD0006520FEF7FBFD0020FEF7F8FD7620FEF7FC
:101DE000F5FD0020FEF7F2FD8820FEF7EFFD002054
:101DF000FEF7ECFDC620FEF7DDFD2020FEF7E6FD38
:101E00000020FEF7E3FD1720FEF7E0FD0020FEF7BF
:101E1000DDFD0120FEF7DAFD0020FEF7D7FDC7202B
:101E2000FEF7C8FD0020FEF7D1FD0020FEF7CEFD35
:101E30000020FEF7CBFD0020FEF7C8FDC820FEF70E
:101E4000B9FD0020FEF7C2FD0020FEF7BFFD002017
:101E5000FEF7BCFD0020FEF7B9FDC920FEF7AAFD84
:101E60000020FEF7B3FD0020FEF7B0FD0020FEF7D6
:101E7000ADFD0020FEF7AAFD0020FEF7A7FD002023
:101E8000FEF7A4FD0020FEF7A1FD0020FEF79EFD59
:101E90000020FEF79BFD0020FEF798FD0020FEF7D6
:101EA00095FD0020FEF792FD0020FEF78FFD00203B
:101EB000FEF78CFD0020FEF789FD0020FEF786FD71
:101EC000E020FEF777FD1620FEF780FD0020FEF7EC
:101ED0007DFD1C20FEF77AFD0020FEF777FD212016
:101EE000FEF774FD0020FEF771FD3620FEF76EFD53
:101EF0000020FEF76BFD4620FEF768FD0020FEF790
:101F000065FD5220FEF762FD0020FEF75FFD6420B4
:101F1000FEF75CFD0020FEF759FD7A20FEF756FD26
:101F20000020FEF753FD8B20FEF750FD0020FEF74A
:101F30004DFD9920FEF74AFD0020FEF747FDA82041
:101F4000FEF744FD0020FEF741FDB920FEF73EFDFF
:101F50000020FEF73BFDC420FEF738FD0020FEF711
:101F600035FDCA20FEF732FD0020FEF72FFDD220FE
:101F7000FEF72CFD0020FEF729FDD920FEF726FDF7
:101F80000020FEF723FDE020FEF720FD0020FEF7F5
:101F90001DFDF320FEF71AFD0020FEF717FDE120DE
:101FA000FEF708FD1620FEF711FD0020FEF70EFDDE
:101FB0001C20FEF70BFD0020FEF708FD2220FEF797
:101FC00005FD0020FEF702FD3620FEF7FFFC002095
:101FD000FEF7FCFC4520FEF7F9FC0020FEF7F6FCBE
:101FE0005220FEF7F3FC0020FEF7F0FC6420FEF721
:101FF000EDFC0020FEF7EAFC7A20FEF7E7FC00206B
:10200000FEF7E4FC8B20FEF7E1FC0020FEF7DEFC8F
:102010009920FEF7DBFC0020FEF7D8FCA820FEF795
:10202000D5FC0020FEF7D2FCB920FEF7CFFC002043
:10203000FEF7CCFCC420FEF7C9FC0020FEF7C6FC6E
:10204000CA20FEF7C3FC0020FEF7C0FCD220FEF73A
:10205000BDFC0020FEF7BAFCD820FEF7B7FC00203C
:10206000FEF7B4FCE020FEF7B1FC0020FEF7AEFC6A
:10207000F320FEF7ABFC0020FEF7A8FCE220FEF701
:1020800099FC0520FEF7A2FC0020FEF79FFC0B2028
:10209000FEF79CFC0020FEF799FC1B20FEF796FC47
:1020A0000020FEF793FC3420FEF790FC0020FEF7A2
:1020B0008DFC4420FEF78AFC0020FEF787FC4F20B1
:1020C000FEF784FC0020FEF781FC6120FEF77EFC19
:1020D0000020FEF77BFC7920FEF778FC0020FEF75D
:1020E00075FC8820FEF772FC0020FEF76FFC97203D
:1020F000FEF76CFC0020FEF769FCA620FEF766FCEC
:102100000020FEF763FCB720FEF760FC0020FEF71E
:102110005DFCC220FEF75AFC0020FEF757FCC720EA
:10212000FEF754FC0020FEF751FCD120FEF74EFCD8
:102130000020FEF74BFCD620FEF748FC0020FEF7FF
:1021400045FCDD20FEF742FC0020FEF73FFCF320BB
:10215000FEF73CFC0020FEF739FCE320FEF72AFCEA
:102160000520FEF733FC0020FEF730FC0A20FEF7C6
:102170002DFC0020FEF72AFC1C20FEF727FC002087
:1021800000E0FDE2FEF722FC3320FEF71FFC0020FA
:10219000FEF71CFC4420FEF719FC0020FEF716FC9D
:1021A0005020FEF713FC0020FEF710FC6220FEF723
:1021B0000DFC0020FEF70AFC7820FEF707FC00204B
:1021C000FEF704FC8820FEF701FC0020FEF7FEFB72
:1021D0009720FEF7FBFB0020FEF7F8FBA620FEF79A
:1021E000F5FB0020FEF7F2FBB720FEF7EFFB002027
:1021F000FEF7ECFBC220FEF7E9FB0020FEF7E6FB52
:10220000C720FEF7E3FB0020FEF7E0FBD120FEF73E
:10221000DDFB0020FEF7DAFBD520FEF7D7FB002020
:10222000FEF7D4FBDD20FEF7D1FB0020FEF7CEFB4E
:10223000F320FEF7CBFB0020FEF7C8FBE420FEF7FF
:10224000B9FB0120FEF7C2FB0020FEF7BFFB012017
:10225000FEF7BCFB0020FEF7B9FB0220FEF7B6FB41
:102260000020FEF7B3FB2A20FEF7B0FB0020FEF7AC
:10227000ADFB3C20FEF7AAFB0020FEF7A7FB4B209E
:10228000FEF7A4FB0020FEF7A1FB5D20FEF79EFBFE
:102290000020FEF79BFB7420FEF798FB0020FEF762
:1022A00095FB8420FEF792FB0020FEF78FFB932026
:1022B000FEF78CFB0020FEF789FBA220FEF786FBD1
:1022C0000020FEF783FBB320FEF780FB0020FEF723
:1022D0007DFBBE20FEF77AFB0020FEF777FBC420D3
:1022E000FEF774FB0020FEF771FBCD20FEF76EFBBE
:1022F0000020FEF76BFBD320FEF768FB0020FEF703
:1023000065FBDD20FEF762FB0020FEF75FFBF3209C
:10231000FEF75CFB0020FEF759FBE520FEF74AFBC9
:102320000020FEF753FB0020FEF750FB0020FEF7D5
:102330004DFB0020FEF74AFB0220FEF747FB002082
:10234000FEF744FB2920FEF741FB0020FEF73EFB91
:102350003C20FEF73BFB0020FEF738FB4B20FEF74E
:1023600035FB0020FEF732FB5D20FEF72FFB00203F
:10237000FEF72CFB7420FEF729FB0020FEF726FB5E
:102380008420FEF723FB0020FEF720FB9320FEF7BE
:102390001DFB0020FEF71AFBA220FEF717FB002012
:1023A000FEF714FBB320FEF711FB0020FEF70EFB37
:1023B000BE20FEF70BFB0020FEF708FBC420FEF753
:1023C00005FB0020FEF702FBCD20FEF7FFFA002000
:1023D000FEF7FCFAD320FEF7F9FA0020FEF7F6FA32
:1023E000DC20FEF7F3FA0020FEF7F0FAF320FEF708
:1023F000EDFA0020FEF7EAFAE620FEF7DBFA1120FC
:10240000FEF7E4FA0020FEF7E1FA3420FEF7DEFAE8
:102410000020FEF7DBFA5620FEF7D8FA0020FEF780
:10242000D5FA7620FEF7D2FA0020FEF7CFFA772011
:10243000FEF7CCFA0020FEF7C9FA6620FEF7C6FACE
:102440000020FEF7C3FA8820FEF7C0FA0020FEF74E
:10245000BDFA9920FEF7BAFA0020FEF7B7FABB20C2
:10246000FEF7B4FA0020FEF7B1FA9920FEF7AEFAB3
:102470000020FEF7ABFA6620FEF7A8FA0020FEF770
:10248000A5FA5520FEF7A2FA0020FEF79FFA552084
:10249000FEF79CFA0020FEF799FA4520FEF796FA1F
:1024A0000020FEF793FA4320FEF790FA0020FEF793
:1024B0008DFA4420FEF78AFA0020FEF787FAE7201B
:1024C000FEF778FA3220FEF781FA0020FEF77EFA56
:1024D0005520FEF77BFA0020FEF778FA7620FEF70B
:1024E00075FA0020FEF772FA6620FEF76FFA0020F8
:1024F000FEF76CFA6720FEF769FA0020FEF766FA2D
:102500006720FEF763FA0020FEF760FA8720FEF7E7
:102510005DFA0020FEF75AFA9920FEF757FA0020DC
:10252000FEF754FABB20FEF751FA0020FEF74EFAF0
:102530009920FEF74BFA0020FEF748FA7720FEF7C5
:1025400045FA0020FEF742FA4420FEF73FFA002049
:10255000FEF73CFA5620FEF739FA0020FEF736FA6D
:102560002320FEF733FA0020FEF730FA3320FEF77F
:102570002DFA0020FEF72AFA4520FEF727FA002060
:10258000FEF724FAE820FEF715FA0020FEF71EFAFF
:102590000020FEF71BFA9920FEF718FA0020FEF73C
:1025A00015FA8720FEF712FA0020FEF70FFA8820AE
:1025B000FEF70CFA0020FEF709FA7720FEF706FA7C
:1025C0000020FEF703FA6620FEF700FA0020FEF76F
:1025D000FDF98820FEF7FAF90020FEF7F7F9AA20A6
:1025E000FEF7F4F90020FEF7F1F9BB20FEF7EEF953
:1025F0000020FEF7EBF99920FEF7E8F90020FEF73E
:10260000E5F96620FEF7E2F90020FEF7DFF9552034
:10261000FEF7DCF90020FEF7D9F95520FEF7D6F9D0
:102620000020FEF7D3F94420FEF7D0F90020FEF792
:10263000CDF94420FEF7CAF90020FEF7C7F955206E
:10264000FEF7C4F90020FEF7C1F9E920FEF7B2F960
:10265000AA20FEF7BBF90020FEF7B8F90020FEF72C
:10266000B5F90020FEF7B2F90020FEF7A3F9AA2081
:10267000FEF7ACF9CF20FEF79DF90020FEF7A6F992
:102680000020FEF7A3F90020FEF7A0F90020FEF7D6
:102690009DF90020FEF79AF90020FEF797F9002037
:1026A000FEF794F90020FEF791F90020FEF78EF96D
:1026B0000020FEF78BF90020FEF788F90020FEF7D6
:1026C00085F90020FEF782F90020FEF77FF900204F
:1026D000FEF77CF90020FEF779F90020FEF776F985
:1026E000F020FEF767F90020FEF770F95020FEF7A2
:1026F0006DF90020FEF76AF90020FEF767F9002067
:10270000FEF764F9F320FEF755F90020FEF75EF9B5
:10271000F920FEF74FF90620FEF758F91020FEF7D2
:1027200055F92920FEF752F90020FEF74FF93A201B
:10273000FEF740F95520FEF749F91120FEF73AF966
:10274000642006F02FF92920FEF734F93520FEF732
:1027500031F90020FEF73AF95120FEF72BF9FF205E
:10276000FEF734F95320FEF725F92C20FEF72EF959
:102770005520FEF71FF98220FEF728F92C20FCE3F4
:10278000B0427DD14FF4704455212046FEF734F914
:10279000651CAA212846FEF72FF9A61C52213046B7
:1027A000FEF72AF9E71C08213846FEF725F94FF213
:1027B000040C01216046FEF71FF90D214FF4304053
:1027C000FEF71AF90D214BF20100FEF715F90D2164
:1027D0004BF20200FEF710F94FF436483421404620
:1027E000FEF70AF934214BF20160FEF705F93421B6
:1027F0004BF20260FEF700F94FF4314A0D215046CA
:10280000FEF7FAF84BF2011B0D215846FEF7F4F8DB
:102810000D214BF20210FEF7EFF834214FF4374050
:10282000FEF7EAF834214BF20170FEF7E5F83421A7
:102830004BF20270FEF7E0F800214FF43240FEF751
:10284000DBF800214BF20120FEF7D6F800214BF215
:102850000220FEF7D1F824214FF43840FEF7CCF8DF
:1028600024214BF60100FEF7C7F824214BF60200A5
:10287000FEF7C2F801214FF43F40FEF7BDF800E03B
:10288000FEE30F214FF43340FEF7B6F80F214BF271
:102890000130FEF7B1F80F214BF20230FEF7ACF831
:1028A00034214FF43940FEF7A7F834214BF60110DC
:1028B000FEF7A2F834214BF60210FEF79DF808212E
:1028C0004FF43540FEF798F808214BF20150FEF71F
:1028D00093F808214BF20250FEF78EF803214FF4D3
:1028E0004240FEF789F824214FF43A40FEF784F87D
:1028F00024214BF60120FEF77FF824214BF602201D
:10290000FEF77AF800214FF43C40FEF775F8782185
:102910004BF60140FEF770F800214BF60240FEF73F
:102920006BF800214FF43D40FEF766F878214BF636
:102930000150FEF761F800214BF60250FEF75CF8FB
:1029400000214FF43E40FEF757F864214BF601603A
:10295000FEF752F800214FF45140FEF74DF83321B5
:102960004DF20110FEF748F800214DF20210FEF77B
:1029700043F834214DF20310FEF73EF800214DF2EA
:102980000410FEF739F83A214DF20510FEF734F83D
:1029900000214DF20610FEF72FF84A214DF20710E4
:1029A000FEF72AF800214DF20810FEF725F85C2109
:1029B0004DF20910FEF720F800214DF20A10FEF743
:1029C0001BF881214DF20B10FEF716F800214DF295
:1029D0000C10FEF711F8A6214DF20D10FEF70CF8C1
:1029E00000214DF20E10FEF707F8E5214DF20F1011
:1029F000FEF702F801214DF21010FDF7FDFF132143
:102A00004DF21110FDF7F8FF01214DF21210FDF704
:102A1000F3FF54214DF21310FDF7EEFF01214DF2AB
:102A20001410FDF7E9FF82214DF21510FDF7E4FFC8
:102A300001214DF21610FDF7DFFFCA214DF21710EC
:102A4000FDF7DAFF02214DF21810FDF7D5FF002146
:102A50004DF21910FDF7D0FF02214DF21A10FDF7CB
:102A6000CBFF01214DF21B10FDF7C6FF02214DF2F5
:102A70001C10FDF7C1FF34214DF21D10FDF7BCFF06
:102A800002214DF21E10FDF7B7FF67214DF21F1016
:102A9000FDF7B2FF02214DF22010FDF7ADFF8421BA
:102AA0004DF22110FDF7A8FF02214DF22210FDF793
:102AB000A3FFA4214DF22310FDF79EFF02214DF24A
:102AC0002410FDF799FFB7214DF22510FDF794FF73
:102AD00002214DF22610FDF78FFFCF214DF2271076
:102AE000FDF78AFF02214DF22810FDF785FFDE2158
:102AF0004DF22910FDF780FF02214DF22A10FDF75B
:102B00007BFFF2214DF22B10FDF776FF02214DF2F3
:102B10002C10FDF771FFFE214DF22D10FDF76CFF1B
:102B200003214DF22E10FDF767FF10214DF22F10FB
:102B3000FDF762FF03214DF23010FDF75DFF3321F9
:102B40004DF23110FDF758FF03214DF23210FDF721
:102B500053FF6D214DF23310FDF74EFF00214FF46E
:102B60005240FDF749FF33214DF20120FDF744FFAC
:102B700000214DF20220FDF73FFF34214DF20320EA
:102B8000FDF73AFF00214DF20420FDF735FF3A2111
:102B90004DF20520FDF730FF00214DF20620FDF734
:102BA0002BFF4A214DF20720FDF726FF00214DF2B1
:102BB0000820FDF721FF5C214DF20920FDF71CFFE5
:102BC00000214DF20A20FDF717FF81214DF20B2065
:102BD000FDF712FF00214DF20C20FDF70DFFA6219D
:102BE0004DF20D20FDF708FF00214DF20E20FDF7FC
:102BF00003FFE5214DF20F20FDF7FEFE01214DF20E
:102C00001020FDF7F9FE13214DF21120FDF7F4FE1F
:102C100001214DF21220FDF7EFFE54214DF2132059
:102C2000FDF7EAFE01214DF21420FDF7E5FE8221B9
:102C30004DF21520FDF7E0FE01214DF21620FDF7C3
:102C4000DBFECA214DF21720FDF7D6FE02214DF220
:102C50001820FDF7D1FE00214DF21920FDF7CCFE22
:102C600002214DF21A20FDF7C7FE01214DF21B2073
:102C7000FDF7C2FE02214DF21C20FDF7BDFE3421FE
:102C80004DF21D20FDF7B8FE02214DF21E20FDF78A
:102C9000B3FE67214DF21F20FDF7AEFE02214DF27B
:102CA0002020FDF7A9FE84214DF22120FDF7A4FE8E
:102CB00002214DF22220FDF79FFEA4214DF2232098
:102CC000FDF79AFE02214DF22420FDF795FEB72173
:102CD0004DF22520FDF790FE02214DF22620FDF752
:102CE0008BFECF214DF22720FDF786FE02214DF20B
:102CF0002820FDF781FEDE214DF22920FDF77CFE24
:102D000002214DF22A20FDF777FEF2214DF22B2011
:102D1000FDF772FE02214DF22C20FDF76DFEFE2123
:102D20004DF22D20FDF768FE03214DF22E20FDF718
:102D300063FE10214DF22F20FDF75EFE03214DF2C0
:102D40003020FDF759FE33214DF23120FDF754FEBE
:102D500003214DF23220FDF74FFE6D214DF233205D
:102D6000FDF74AFE00214FF45340FDF745FE3321A5
:102D70004DF20130FDF740FE00214DF20230FDF72B
:102D80003BFE34214DF20330FDF736FE00214DF2BB
:102D90000430FDF731FE3A214DF20530FDF72CFEEF
:102DA00000214DF20630FDF727FE4A214DF2073093
:102DB000FDF722FE00214DF20830FDF71DFE5C21DB
:102DC0004DF20930FDF718FE00214DF20A30FDF7F3
:102DD00013FE81214DF20B30FDF70EFE00214DF266
:102DE0000C30FDF709FEA6214DF20D30FDF704FE73
:102DF00000214DF20E30FDF7FFFDE5214DF20F30C1
:102E0000FDF7FAFD01214DF21030FDF7F5FD13211C
:102E10004DF21130FDF7F0FD01214DF21230FDF7BA
:102E2000EBFD54214DF21330FDF7E6FD01214DF28B
:102E30001430FDF7E1FD82214DF21530FDF7DCFD88
:102E400001214DF21630FDF7D7FDCA214DF21730A2
:102E5000FDF7D2FD02214DF21830FDF7CDFD002126
:102E60004DF21930FDF7C8FD02214DF21A30FDF781
:102E7000C3FD01214DF21B30FDF7BEFD02214DF2D5
:102E80001C30FDF7B9FD34214DF21D30FDF7B4FDC6
:102E900002214DF21E30FDF7AFFD67214DF21F30CC
:102EA000FDF7AAFD02214DF22030FDF7A5FD84219A
:102EB0004DF22130FDF7A0FD02214DF22230FDF749
:102EC0009BFDA4214DF22330FDF796FD02214DF22A
:102ED0002430FDF791FDB7214DF22530FDF78CFD33
:102EE00002214DF22630FDF787FDCF214DF227302C
:102EF000FDF782FD02214DF22830FDF77DFDDE2138
:102F00004DF22930FDF778FD02214DF22A30FDF710
:102F100073FDF2214DF22B30FDF76EFD02214DF2D3
:102F20002C30FDF769FDFE214DF22D30FDF764FDDB
:102F300003214DF22E30FDF75FFD10214DF22F30B1
:102F4000FDF75AFD03214DF23030FDF755FD3321D9
:102F50004DF23130FDF750FD03214DF23230FDF7D7
:102F60004BFD6D214DF23330FDF746FD00214FF44E
:102F70005440FDF741FD332100E080E34DF2014074
:102F8000FDF73AFD00214DF20240FDF735FD3421F9
:102F90004DF20340FDF730FD00214DF20440FDF7F6
:102FA0002BFD3A214DF20540FDF726FD00214DF2A3
:102FB0000640FDF721FD4A214DF20740FDF71CFDBB
:102FC00000214DF20840FDF717FD5C214DF209404C
:102FD000FDF712FD00214DF20A40FDF70DFD8121A4
:102FE0004DF20B40FDF708FD00214DF20C40FDF7BE
:102FF00003FDA6214DF20D40FDF7FEFC00214DF230
:103000000E40FDF7F9FCE5214DF20F40FDF7F4FC11
:1030100001214DF21040FDF7EFFC13214DF211405C
:10302000FDF7EAFC01214DF21240FDF7E5FC5421C9
:103030004DF21340FDF7E0FC01214DF21440FDF785
:10304000DBFC82214DF21540FDF7D6FC01214DF24B
:103050001640FDF7D1FCCA214DF21740FDF7CCFC1C
:1030600002214DF21840FDF7C7FC00214DF2194036
:10307000FDF7C2FC02214DF21A40FDF7BDFC00E055
:1030800000E301214DF21B40FDF7B6FC02214DF299
:103090001C40FDF7B1FC34214DF21D40FDF7ACFCA6
:1030A00002214DF21E40FDF7A7FC67214DF21F40A3
:1030B000FDF7A2FC02214DF22040FDF79DFC84218A
:1030C0004DF22140FDF798FC02214DF22240FDF720
:1030D00093FCA4214DF22340FDF78EFC02214DF21A
:1030E0002440FDF789FCB7214DF22540FDF784FC13
:1030F00002214DF22640FDF77FFCCF214DF2274003
:10310000FDF77AFC02214DF22840FDF775FCDE2127
:103110004DF22940FDF770FC02214DF22A40FDF7E7
:103120006BFCF2214DF22B40FDF766FC02214DF2C3
:103130002C40FDF761FCFE214DF22D40FDF75CFCBB
:1031400003214DF22E40FDF757FC10214DF22F4088
:10315000FDF752FC03214DF23040FDF74DFC3321C9
:103160004DF23140FDF748FC03214DF23240FDF7AE
:1031700043FC6D214DF23340FDF73EFC00214FF43E
:103180005540FDF739FC33214DF20150FDF734FC79
:1031900000214DF20250FDF72FFC34214DF2035077
:1031A000FDF72AFC00214DF20450FDF725FC3A21E1
:1031B0004DF20550FDF720FC00214DF20650FDF7C1
:1031C0001BFC4A214DF20750FDF716FC00214DF281
:1031D0000850FDF711FC5C214DF20950FDF70CFC85
:1031E00000214DF20A50FDF707FC81214DF20B50F2
:1031F000FDF702FC00214DF20C50FDF7FDFBA6216E
:103200004DF20D50FDF7F8FB00214DF20E50FDF789
:10321000F3FBE5214DF20F50FDF7EEFB01214DF2DE
:103220001050FDF7E9FB13214DF21150FDF7E4FBBF
:1032300001214DF21250FDF7DFFB54214DF21350E6
:10324000FDF7DAFB01214DF21450FDF7D5FB822189
:103250004DF21550FDF7D0FB01214DF21650FDF750
:10326000CBFBCA214DF21750FDF7C6FB02214DF2F0
:103270001850FDF7C1FB00214DF21950FDF7BCFBC2
:1032800002214DF21A50FDF7B7FB01214DF21B5000
:10329000FDF7B2FB02214DF21C50FDF7ADFB3421CE
:1032A0004DF21D50FDF7A8FB02214DF21E50FDF717
:1032B000A3FB67214DF21F50FDF79EFB02214DF24B
:1032C0002050FDF799FB84214DF22150FDF794FB2E
:1032D00002214DF22250FDF78FFBA4214DF2235025
:1032E000FDF78AFB02214DF22450FDF785FBB72143
:1032F0004DF22550FDF780FB02214DF22650FDF7DF
:103300007BFBCF214DF22750FDF776FB02214DF2DA
:103310002850FDF771FBDE214DF22950FDF76CFBC3
:1033200002214DF22A50FDF767FBF2214DF22B509E
:10333000FDF762FB02214DF22C50FDF75DFBFE21F3
:103340004DF22D50FDF758FB03214DF22E50FDF7A5
:1033500053FB10214DF22F50FDF74EFB03214DF290
:103360003050FDF749FB33214DF23150FDF744FB5E
:1033700003214DF23250FDF73FFB6D214DF23350EA
:10338000FDF73AFB00214FF45640FDF735FB3321A2
:103390004DF20160FDF730FB00214DF20260FDF7B8
:1033A0002BFB34214DF20360FDF726FB00214DF28B
:1033B0000460FDF721FB3A214DF20560FDF71CFB8F
:1033C00000214DF20660FDF717FB4A214DF2076020
:1033D000FDF712FB00214DF20860FDF70DFB5C21AB
:1033E0004DF20960FDF708FB00214DF20A60FDF780
:1033F00003FB81214DF20B60FDF7FEFA00214DF237
:103400000C60FDF7F9FAA6214DF20D60FDF7F4FA14
:1034100000214DF20E60FDF7EFFAE5214DF20F604D
:10342000FDF7EAFA01214DF21060FDF7E5FA1321EC
:103430004DF21160FDF7E0FA01214DF21260FDF747
:10344000DBFA54214DF21360FDF7D6FA01214DF25B
:103450001460FDF7D1FA82214DF21560FDF7CCFA28
:1034600001214DF21660FDF7C7FACA214DF217602F
:10347000FDF7C2FA02214DF21860FDF7BDFA0021F6
:103480004DF21960FDF7B8FA02214DF21A60FDF70E
:10349000B3FA01214DF21B60FDF7AEFA02214DF2A5
:1034A0001C60FDF7A9FA34214DF21D60FDF7A4FA66
:1034B00002214DF21E60FDF79FFA67214DF21F6059
:1034C000FDF79AFA02214DF22060FDF795FA84216A
:1034D0004DF22160FDF790FA02214DF22260FDF7D6
:1034E0008BFAA4214DF22360FDF786FA02214DF2FA
:1034F0002460FDF781FAB7214DF22560FDF77CFAD3
:1035000002214DF22660FDF777FACF214DF22760B8
:10351000FDF772FA02214DF22860FDF76DFADE2107
:103520004DF22960FDF768FA02214DF22A60FDF79D
:1035300063FAF2214DF22B60FDF75EFA02214DF2A3
:103540002C60FDF759FAFE214DF22D60FDF754FA7B
:1035500003214DF22E60FDF74FFA10214DF22F603E
:10356000FDF74AFA03214DF23060FDF745FA3321A9
:103570004DF23160FDF740FA03214DF23260FDF764
:103580003BFA6D214DF23360FDF736FA55212046A6
:10359000FDF732FAAA212846FDF72EFA52213046CD
:1035A000FDF72AFA08213846FDF726FA0021604681
:1035B000FDF722FACC215046FDF71EFA00215846AD
:1035C000FDF71AFA05214046FDF716FA70214FF46F
:1035D0003740FDF711FA70214BF20170FDF70CFA3C
:1035E00001214FF43840FDF707FA03214BF60100A3
:1035F000FDF702FA03214BF60200FDF7FDF9032166
:103600004BF60300FDF7F8F902214FF43C40FDF7BB
:10361000F3F900214BF60140FDF7EEF900214BF6DE
:103620000240FDF7E9F9D0214FF44940FDF7E4F9F4
:1036300002214CF60110FDF7DFF950214CF6021083
:10364000FDF7DAF950214CF60310FDF7D5F95021BA
:103650004CF60410FDF7D0F900214FF45450FDF75B
:10366000CBF955214FF46850FDF7C6F94FF4885057
:10367000FDF7A0F9782005F07EF94FF42450FDF70E
:1036800099F9FCE3A0F513414FF480744FF4E06620
:1036900040F2022740F23F184FF4274A253921D043
:1036A000F51DC91E7ED04FF4887B4FF41C5A08319B
:1036B00079D0113978D0A0F5A841083975D0A0F596
:1036C000A8514FF4407B053970D0B1F520416ED040
:1036D000B1F580516CD0A0F58A41313969D0091F0C
:1036E00068D0CEE747F6F001E520FDF785F92146E1
:1036F0000120FDF781F931460220FDF77DF941F205
:1037000030010320FDF778F900210420FDF774F95A
:1037100039460820FDF770F900210920FDF76CF902
:1037200000210A20FDF768F900210C20FDF764F95B
:1037300000210D20FDF760F900210F20FDF75CF955
:1037400000211020FDF758F907211120FDF754F949
:1037500000211220FDF750F900211320FDF74CF94C
:1037600000210720FDF748F941F290611020FDF794
:1037700043F940F227211120FDF73EF99D21122047
:10378000FDF73AF94FF4C8511320FDF735F925211B
:103790002920FDF731F90D212B20FDF72DF9072107
:1037A000302008E073E02AE1CDE1A1E23BE3FCE355
:1037B000FCE3FCE3FCE3FDF71FF940F203313120A9
:1037C000FDF71AF903213220FDF716F940F2062120
:1037D0003520FDF711F908213620FDF70DF940F2EB
:1037E00006413720FDF708F94FF441713820FDF705
:1037F00003F907213920FDF7FFF840F202613C2070
:10380000FDF7FAF808213D20FDF7F6F800215020D9
:10381000FDF7F2F8EF215120FDF7EEF800215220DC
:10382000FDF7EAF841465320FDF7E6F851466020DF
:10383000FDF7E2F801216120FDF7DEF800216A20A2
:10384000FDF7DAF800218020FDF7D6F8002181206D
:10385000FDF7D2F800218220FDF7CEF80021832069
:10386000FDF7CAF800218420FDF7C6F80021852065
:10387000FDF7C2F810219020FDF7BEF84FF4C061AB
:103880009220FDF7B9F840F233110720FEE341F230
:103890008F01EC20FDF7B0F841F23421EF20FDF765
:1038A000ABF821460120FDF7A7F831460220FDF7CD
:1038B000A3F841F230010320FDF79EF80021042017
:1038C000FDF79AF839460820FDF796F800210920FF
:1038D000FDF792F800210A20FDF78EF801210C2057
:1038E000FDF78AF800210D20FDF786F800210F2052
:1038F000FDF782F800211020FDF77EF80721112046
:10390000FDF77AF800211220FDF776F80021132048
:10391000FDF772F801210720FDF76EF8322005F05F
:1039200041F841F290411020FDF766F840F227215E
:103930001120FDF761F8322005F034F88A211220B9
:10394000FDF75AF8322005F02DF84FF4D05113202E
:10395000FDF752F806212920FDF74EF80D212B2006
:10396000FDF74AF8322005F01DF800212020FDF770
:1039700043F800212120FDF73FF8322005F012F82E
:1039800000213020FDF738F840F204613120FDF7C6
:1039900033F840F205313220FDF72EF800213520B2
:1039A000FDF72AF840F609413620FDF725F84FF4D7
:1039B00001713720FDF720F840F201313820FDF782
:1039C0001BF829463920FDF717F800213C20FDF7A8
:1039D00013F840F60A213D20FDF70EF8322004F0DE
:1039E000E1FF00215020FDF707F8EF215120FDF7FE
:1039F00003F800215220FCF7FFFF414649E1002176
:103A00000846FCF7F9FF21460120FCF7F5FF314697
:103A10000220FCF7F1FF41F230010320FCF7ECFF3C
:103A200000210420FCF7E8FF39460820FCF7E4FFFA
:103A300000210920FCF7E0FF00210A20FCF7DCFF51
:103A400001210C20FCF7D8FF00210D20FCF7D4FF4A
:103A500000210F20FCF7D0FF322004F0A3FF40F23A
:103A600001110720FCF7C8FF322004F09BFF4FF440
:103A700086511020FCF7C0FF07211120FCF7BCFF86
:103A80005C4659461220FCF7B7FF4FF43061132013
:103A9000FCF7B2FF00212920FCF7AEFF44F2100131
:103AA0002B20FCF7A9FF00215020FCF7A5FFEF21F8
:103AB0005120FCF7A1FF00215220FCF79DFF414659
:103AC0005320FCF799FF51466020FCF795FF012138
:103AD0006120FCF791FF00216A20FCF78DFF002197
:103AE0008020FCF789FF00218120FCF785FF002161
:103AF0008220FCF781FF00218320FCF77DFF00215D
:103B00008420FCF779FF00218520FCF775FF102148
:103B10009020FCF771FF00219220FCF76DFF01213E
:103B20009320FCF769FF21469520FCF765FF0021F3
:103B30009720FCF761FF00219820FCF75DFF40F221
:103B4000731107207AE341F21401E720FCF754FFD8
:103B500021460120FCF750FF4FF400710220FCF7D2
:103B60004BFF41F238010320FCF746FF394608209D
:103B7000FCF742FF00210920FCF73EFF00210A204C
:103B8000FCF73AFF00210C20FCF736FF00210D2046
:103B9000FCF732FF00210F20FCF72EFF0021102040
:103BA000FCF72AFF07211120FCF726FF0021122035
:103BB000FCF722FF00211320FCF71EFFC82004F0B1
:103BC000F1FE41F290611020FCF716FF40F2272130
:103BD0001120FCF711FF322004F0E4FE0C2112202A
:103BE000FCF70AFF322004F0DDFE4FF400611320E1
:103BF000FCF702FF11212920FCF7FEFE0B212B20F0
:103C0000FCF7FAFE322004F0CDFE00212020FCF764
:103C1000F3FE444641462120FCF7EEFE0021302011
:103C2000FCF7EAFE4FF4837631463120FCF7E4FEE0
:103C300000213220FCF7E0FE4FF401713520FCF743
:103C4000DBFE41F20A613620FCF7D6FE294637201A
:103C5000FCF7D2FE31463820FCF7CEFE294639204B
:103C6000FCF7CAFE40F202413C20FCF7C5FE40F6DC
:103C70000F413D20FCF7C0FE00215020FCF7BCFEA8
:103C8000EF215120FCF7B8FE00215220FCF7B4FED2
:103C900021465320FCF7B0FE51466020FCF7ACFEF5
:103CA00001216120FCF7A8FE00216A20FCF7A4FE98
:103CB00000218020FCF7A0FE00218120FCF79CFE63
:103CC00000218220FCF798FE00218320FCF794FE5F
:103CD00000218420FCF790FE00218520FCF78CFE5B
:103CE00010219020FCF788FE4FF4C0619220FCE385
:103CF00021460120FCF780FE31460220FCF77CFEC5
:103D000041F230010320FCF777FE00210420FCF78C
:103D100073FE40F207210820FCF76EFE0021092007
:103D2000FCF76AFE00210A20FCF766FE00210C2049
:103D3000FCF762FE00210D20FCF75EFE00210F2043
:103D4000FCF75AFE142004F02DFE41F2B061102061
:103D5000FCF752FE01211120FCF74EFE0121172035
:103D6000FCF74AFE4FF49C711220FCF745FE4FF41D
:103D700000611320FCF740FE09212920FCF73CFEDE
:103D800009212A20FCF738FE0021A420FCF734FE8C
:103D900000215020FCF730FEEF215120FCF72CFED3
:103DA00000215220FCF728FE41465320FCF724FE58
:103DB00051466020FCF720FE01216120FCF71CFE2B
:103DC00000216A20FCF718FE00218020FCF714FE79
:103DD00000218120FCF710FE00218220FCF70CFE60
:103DE00000218320FCF708FE00218420FCF704FE5C
:103DF00000218520FCF700FE13219020FCF7FCFD3C
:103E000000219220FCF7F8FD03219320FCF7F4FD3C
:103E100059469520FCF7F0FD40F273110720FCF79E
:103E2000EBFD32200CE100210720FCF7E5FD3220FC
:103E300004F0B8FD4FF48E711220FCF7DDFD012176
:103E4000A420FCF7D9FD0F210820FCF7D5FD08219F
:103E50000A20FCF7D1FD08210D20FCF7CDFD2946F5
:103E60003020FCF7C9FD07213120FCF7C5FD40F2E9
:103E700003613220FCF7C0FD3146332000E05BE3F4
:103E8000FCF7BAFD39463420FCF7B6FD0221352097
:103E9000FCF7B2FD41F60F713620FCF7ADFD294667
:103EA0003720FCF7A9FD00213820FCF7A5FD0021F3
:103EB0003920FCF7A1FD29463A20FCF79DFD0021A1
:103EC0003B20FCF799FD07213C20FCF795FD0021E4
:103ED0003D20FCF791FD322004F064FD0121072014
:103EE000FCF78AFD01211720FCF786FD322004F043
:103EF00059FD4FF4BD511020FCF77EFD40F2172113
:103F00001120FCF779FD4FF48F711220FCF774FD3E
:103F10004FF470611320FCF76FFD00212A20FCF79D
:103F20006BFD0A212920FCF767FD4FF49F711220D9
:103F3000FCF762FD00215020FCF75EFDEF215120CF
:103F4000FCF75AFD00215220FCF756FD4146532054
:103F5000FCF752FD51466020FCF74EFD0121612027
:103F6000FCF74AFD00216A20FCF746FD0021802075
:103F7000FCF742FD00218120FCF73EFD002182205C
:103F8000FCF73AFD00218320FCF736FD0021842058
:103F9000FCF732FD00218520FCF72EFD1321902037
:103FA000FCF72AFD5946922003E04CE047E10EE27F
:103FB000CFE2FCF721FD05219320FCF71DFD002138
:103FC0009520FCF719FD00219720FCF715FD002135
:103FD0009820FCF711FD21460120FCF70DFD31462C
:103FE0000220FCF709FD41F238010320FCF704FD33
:103FF00000210420FCF700FD00210C20FCF7FCFC54
:1040000000210F20FCF7F8FC00212020FCF7F4FC35
:1040100000212120FCF7F0FC21210720FCF7ECFC1B
:10402000142004F0BFFC61210720FCF7E5FC1420FC
:1040300004F0B8FC40F273110720FCF7DDFC1420FB
:1040400004F0B0FC78E200210846FCF7D5FC002122
:104050000846FCF7D1FC00210846FCF7CDFC002106
:104060000846FCF7C9FC0121A420FCF7C5FC14207C
:1040700004F098FC554651466020FCF7BDFC3946DB
:104080000820FCF7B9FC4FF4057100E0D2E03020C5
:10409000FCF7B2FC43F215713120FCF7ADFC40F2A5
:1040A00004613220FCF7A8FC40F616613320FCF7CF
:1040B000A3FC42F211213420FCF79EFC4FF4A851DE
:1040C0003520FCF799FC48F207513620FCF794FCA8
:1040D00041F207413720FCF78FFC41F203413820C1
:1040E000FCF78AFC20213920FCF786FC1A2190205D
:1040F000FCF782FC00211020FCF77EFC0721112038
:10410000FCF77AFC00211220FCF776FC002113203A
:10411000FCF772FC142004F045FC4FF4E66110201B
:10412000FCF76AFC40F237111120FCF765FC142003
:1041300004F038FC4FF4DC711220FCF75DFC142015
:1041400004F030FC4FF470611320FCF755FC802123
:104150002A20FCF751FC48212920FCF74DFC1420B3
:1041600004F020FC21460120FCF746FC31460220E9
:10417000FCF742FC41F238010320FCF73DFC3946D4
:104180000820FCF739FC00210A20FCF735FC00214F
:104190000C20FCF731FC00210D20FCF72DFC302118
:1041A0000E20FCF729FC00215020FCF725FCEF2114
:1041B0005120FCF721FC00215220FCF71DFC414658
:1041C0005320FCF719FC29466020FCF715FC01215F
:1041D0006120FCF711FC00216A20FCF70DFC112185
:1041E0009020FCF709FC4FF4C0619220FCF704FC1E
:1041F00040F202419320FCF7FFFB02219420FCF7E0
:10420000FBFB142004F0CEFB01210720FCF7F4FB9C
:10421000142004F0C7FB61210720FCF7EDFB40F2FE
:1042200073110720FCF7E8FB00212020FCF7E4FBDA
:1042300000212120FCF7E0FB222100207AE100216F
:104240000846FCF7D9FB00210846FCF7D5FB1420F3
:1042500004F0A8FB00210846FCF7CEFB002108462D
:10426000FCF7CAFB00210846FCF7C6FB0021084604
:10427000FCF7C2FB0121A420FCF7BEFB142004F0D4
:1042800091FB51466020FCF7B7FB40F60601082081
:10429000FCF7B2FB40F2037631463020FCF7ACFB72
:1042A00001213120FCF7A8FB04213220FCF7A4FBFC
:1042B0004FF481713320FCF79FFB5D465946342053
:1042C000FCF79AFB40F203113520FCF795FB1F2108
:1042D0003620FCF791FB31463720FCF78DFB01219E
:1042E0003820FCF789FB04213920FCF785FB1521D8
:1042F0009020FCF781FB4FF482611020FCF77CFBDF
:1043000040F247211120FCF777FB4FF4DE711220B9
:10431000FCF772FB4FF460611320FCF76DFB782013
:1043200004F040FB21460120FCF766FB4FF40071CE
:104330000220FCF761FB41F230010320FCF75CFB3B
:1043400008210A20FCF758FB00210C20FCF754FB45
:1043500020210E20FCF750FB00210F20FCF74CFB26
:1043600000212020FCF748FB00212120FCF744FB22
:104370003D212A20FCF740FB142004F013FB2D21E3
:104380002920FCF739FB00215020FCF735FB4DF2CA
:10439000EF015120FCF730FB00215220FCF72CFBF1
:1043A00041465320FCF728FB00216120FCF724FB49
:1043B00000216A20FCF720FB29469220FCF71CFB19
:1043C00005219320FCF718FB2146FFF7BABB01211A
:1043D0000020FCF711FB0A2004F0E4FA41F2286106
:1043E0001020FCF709FB0E211220FCF705FB40F61C
:1043F00039211320FCF700FB0A2004F0D3FA4021F6
:104400001120FCF7F9FA50211520FCF7F5FA0A20E3
:1044100004F0C8FA1E211220FCF7EEFA0A2004F07C
:10442000C1FA4FF4B1511020FCF7E6FA42F63921F7
:104430001320FCF7E1FA0A2004F0B4FA2146012027
:10444000FCF7DAFA59460220FCF7D6FA41F23801B5
:104450000320FCF7D1FA39460820FCF7CDFA0821F1
:104460000A20FCF7C9FA00213020FCF7C5FA40F217
:1044700002413120FCF7C0FA4FF483713220FCF77F
:10448000BBFA40F203513320FCF7B6FA4FF48271C5
:104490003420FCF7B1FA40F201313520FCF7ACFAD8
:1044A00029463620FCF7A8FA40F205313720FCF700
:1044B000A3FA4FF402713820FCF79EFA40F60B7114
:1044C0003920FCF799FA02214120FCF795FA514670
:1044D0006020FCF791FA01216120FCF78DFA4FF47E
:1044E00004719020FCF788FA00E0D4E04FF4857165
:1044F0009220FCF781FA04219320FCF77DFA2146F3
:10450000A020FCF779FA01210720FCF775FA212198
:104510000720FCF771FA23210720FCF76DFA3321FD
:104520000720FCF769FA40F233110720FCF764FA20
:104530000021A020FCF760FA0020FCF7EFFCF9490D
:104540000120C1F8BC024846FCF71BFE21B0BDE8C3
:10455000F08F30211520FCF74FFA10219A20FCF73C
:104560004BFA20211120FCF747FA43F22841102092
:10457000FCF742FA02211220FCF73EFA41F2380120
:104580001320FCF739FA282004F00CFA122108460F
:10459000FCF732FA282004F005FA43F220411020FB
:1045A000FCF72AFA43F238011320FCF725FA4620DB
:1045B00004F0F8F900213020FCF71EFA40F2024125
:1045C0003120FCF719FA40F207313220FCF714FAD7
:1045D0004FF441713320FCF70FFA04213420FCF72B
:1045E0000BFA40F201413520FCF706FA2946362045
:1045F000FCF702FA40F205313720FCF7FDF94FF4E1
:10460000C26529463820FCF7F7F929463920FCF71E
:10461000F3F921460120FCF7EFF959460220FCF797
:10462000EBF941F230010320FCF7E6F940F608010E
:104630000820FCF7E1F908210A20FCF7DDF95146D2
:104640006020FCF7D9F901216120FCF7D5F94FF47E
:104650009F719020FCF7D0F921469220FCF7CCF90D
:1046600021469320FCF7C8F94FF44051A020FCF7F5
:10467000C3F91021A320FCF7BFF901210720FCF7A3
:10468000BBF921210720FCF7B7F923210720FCF70C
:10469000B3F933210720FCF7AFF940F2331194E668
:1046A0002DE9F843A04D1F468046AB88089EA3F530
:1046B000D040043802D1A879012807D0A2EB080025
:1046C000401C85B20C464FF0D84929E02B8808469B
:1046D000991A0024AC713A462A24A3EB08036C8192
:1046E0002B27491E5B1EAF8189B29BB20096FFF754
:1046F000D7FF0120A8716F81AC81BDE8F883214606
:104700004046FCF7A1F9FCF78BF90020494603E08D
:10471000401CA1F8806080B2A842F9D3641CA4B206
:10472000BC42ECD9E9E72DE9F0478246A2EB0A004A
:10473000401C0E4685B2981B401C87B200244FF0E7
:10474000D849DDF8208015E0301981B25046FCF7D9
:104750007BF9FCF765F90020494607E004FB0503F7
:10476000401C38F81320A1F8802080B2A842F5D36D
:10477000641CA4B2BC42E7D3BDE8F0872DE9FE4F2C
:104780000026A2EB000882465F1A701E3546894655
:10479000B8F1000F02DD4FF0010102E003D14FF04C
:1047A0000001019102E0C8F100080190002F02DD34
:1047B0004FF0010002E003D14FF00000009002E052
:1047C000C7F1000700904046B84501DD044600E00F
:1047D0003C46601C4FF0000B029015E01FFA89F177
:1047E0001FFA8AF0FCF727FB46443D44A64202DD4F
:1047F0000199361B8A44A54202DD00992D1B89448C
:104800000BF101001FFA80FB02998B45E6DDBDE844
:10481000FE8FF0B51C4615460E4607460B46FFF7C1
:10482000ADFF3A46234631461046FFF7A7FF234621
:104830002A4619463846FFF7A1FF2A462346314645
:10484000BDE8F040104699E72DE9FC4F8046002472
:10485000154603200F46A0EB450649E0781B81B2C0
:1048600008EB040A01901FFA8AF0FCF7E4FA381BFF
:1048700081B208EB050900901FFA89F0FCF7DBFA1A
:1048800007EB040B1FFA8BF11FFA89F0FCF7D3FA40
:1048900007EB05091FFA89F11FFA8AF0FCF7CBFA3A
:1048A000A8EB040A1FFA89F11FFA8AF0FCF7C3FA91
:1048B000A8EB05091FFA8BF11FFA89F0FCF7BBFA88
:1048C000019881B21FFA8AF0FCF7B5FA009881B21C
:1048D0001FFA89F0FCF7AFFA641C002E03DA06EB2E
:1048E0008406B61D04E0601B06EB80066D1E0A36CA
:1048F000AC42B3DDBDE8FC8F2DE9F84F81461E4682
:104900000F468B46580700D0012000EBD6007108F7
:1049100010FB01F0203AC0B202F0FF0A002500901F
:1049200046E0000000804042F80200200C2E10D02B
:10493000102E12D0182E3ED176490AEBCA0001EB98
:1049400080004FF00008445D20060AD572480288B6
:104950000BE00AEB4A007149F1E7714901EB0A10DB
:10496000EFE70A9828B96C48428839464846FCF770
:104970006EFA6006040E6B487F1CBFB20188494581
:1049800019D9A7EB0B00B04209D109F101001FFAB8
:1049900080F964485F46018849450CD906E008F172
:1049A000010000F0FF08B8F1080FCDD36D1CEDB287
:1049B00000988542BAD3BDE8F88F0346012000E095
:1049C0005843491EC9B2FBD270472DE9FF4F81B051
:1049D0000027DDF838B01D46924680463C46B94671
:1049E0004FEA5B0627E0281B401EC1B20A20FFF7F2
:1049F000E4FFBAFBF0F00A21B0FBF1F201FB120078
:104A000027B9691E8C4201DA48B101273030C2B2A1
:104A100006FB048080B25B46CDF8009006E006FB02
:104A2000048080B25B462022CDF800900299FFF707
:104A300063FF641CE4B2AC42D5D305B087E52DE931
:104A4000FF4F81B08046DDF83CA00E984FF0000982
:104A50001F4693464C460AF0010546082BE0381BDA
:104A6000401EC1B20A20FFF7A8FFBBFBF0F00A21ED
:104A7000B0FBF1F201FB1200B9F1000F05D1791E74
:104A80008C4202DA48B14FF001093030C2B206FB65
:104A9000048080B200950E9B08E05FEA0A6006FB86
:104AA00004800E9B80B2009508D530220299FFF752
:104AB00023FF641CE4B2BC42D1D3BEE72022F5E759
:104AC0002DE9F84F044600F0FF0810190D46DDE906
:104AD0000A761FFA80FA58191FFA80F94FF0000B76
:104AE00011E0544502D3E819444685B24D450FD232
:104AF0003B4629462046CDF800B0FFF7FDFE04EB0B
:104B0000570084B2761C3278A2F120005E28E8D9E2
:104B100051E700004C67010816000020E85C01081E
:104B20005C610108F802002010B5B0B001214FF01F
:104B3000606001F008F801F0B5FF02F0C7FB02F079
:104B4000CBFB0128FBD0684601F0B8FF01200090A4
:104B500000204FF40071CDE90A100904079011906C
:104B6000CDE920010E90149013900A111590259014
:104B7000269023920420CDE9280180032A90800109
:104B80002B9040122C9040002E900021684602F09D
:104B900027F8C4B2012C03D10121944802F0AEFBE6
:104BA00030B0204610BDFEB50121452000F0CBFFFE
:104BB0000121880300F0EFFF012001F0C2F88620F8
:104BC000032500908DF8055002208DF80400002484
:104BD000874E8DF806408DF807406946304600F054
:104BE000AFFD0B220121304600F01EFE0B220221F8
:104BF000304600F019FE0B220721304600F014FE6B
:104C000032207C4E00906946304600F099FD0B2220
:104C10000121304600F008FE0B220421304600F04E
:104C200003FE0B220521304600F0FEFD4FF4D0407C
:104C3000714E00906946304600F082FD0B2211460D
:104C4000304600F0F1FD0B220D21304600F0ECFD66
:104C50000B220E21304600F0E7FD8DF805500125AE
:104C600008208DF8045000908DF806408DF807401C
:104C70006946624800F064FD614EC6F88C423220FD
:104C800006F5237603F08EFE35603D208DF8080092
:104C90008DF809408DF80A408DF80B5002A800F0FD
:104CA00090FCFFF741FF08B10020FEBD0120FEBDD2
:104CB00010B51F21002001F06BFFC0F3820010BD72
:104CC00010B5504C01E004F038FF206802F0E4FA1F
:104CD0000028F8D1402002F022FBBDE810404FF43C
:104CE000803002F01CBB70B5464C00231A46216888
:104CF0000D68002D0BDA444916464B691B0602D598
:104D000080234B618E6002604260826070BD0D68DE
:104D10002D040AD40D68ED0507D50D68AD0504D541
:104D20000A68C2F30D438A681B1FCD6825600360C3
:104D3000C0E9012170BD354A11680B68002B01DA0A
:104D400000207047C0F30C004860086840F04050F5
:104D50000860086840F0004008602B4843695B0722
:104D600003D50423436100234360C8681060012019
:104D70007047264800688068704710B5244C0020B2
:104D800021680FF07EFE002061680FF07AFE00209F
:104D9000A1680FF076FEE168BDE8104000200FF03A
:104DA00070BE70B5A02100200FF074FE184CA02139
:104DB000206000200FF06EFE41F6C4556060294669
:104DC00000200FF067FEA060294600200FF062FE71
:104DD000E060216831B1616821B1A16811B108B109
:104DE000002070BDFFF7C9FF012070BD4000010029
:104DF000000002400008024000180240000C02407F
:104E00000080414244000020009002404000002009
:104E10001C0000202DE9F04798B001217A2000F015
:104E200092FE0121084600F0A2FE01258DF80450F3
:104E300000244FF400408DF80640022600908DF8C3
:104E400005608DF807506946A54800F079FC8DF89B
:104E500004604FF633708DF806400327DFF884A214
:104E600000908DF805708DF807506946504600F0A7
:104E700067FC8DF804604FF683708DF80640DFF80C
:104E8000689200908DF805708DF807506946484685
:104E900000F056FC8DF804604FF23F008DF806409C
:104EA000DFF8488200908DF805708DF8075069464C
:104EB000404600F045FC8DF804608DF806408DF802
:104EC00005708DF8075040F23F40894D00906946CB
:104ED000284600F035FC0C220021504600F0A4FCCE
:104EE0000C220121504600F09FFC0C220421504668
:104EF00000F09AFC0C220521504600F095FC0C2293
:104F00000821504600F090FC0C220921504600F088
:104F10008BFC0C220A21504600F086FC0C220B214F
:104F2000504600F081FC0C221146504600F07CFCFB
:104F30000C220D21504600F077FC0C220E21504629
:104F400000F072FC0C220F21504600F06DFC0C2288
:104F50000021484600F068FC0C220121484600F080
:104F600063FC0C220721484600F05EFC0C2208215D
:104F7000484600F059FC0C220921484600F054FC38
:104F80000C220A21484600F04FFC0C220B21484617
:104F900000F04AFC0C221146484600F045FC0C2269
:104FA0000D21484600F040FC0C220E21484600F03E
:104FB0003BFC0C220F21484600F036FC0C2200215D
:104FC000404600F031FC0C220121404600F02CFC50
:104FD0000C220221404600F027FC0C22032140460F
:104FE00000F022FC0C220421404600F01DFC0C22A3
:104FF0000521404600F018FC0C221146404600F006
:1050000013FC0C220D21404600F00EFC0C220E2158
:10501000404600F009FC0C220F21404600F004FC41
:105020000C220021284600F0FFFB0C22012128461B
:1050300000F0FAFB0C220221284600F0F5FB0C22BE
:105040000321284600F0F0FB0C220421284600F042
:10505000EBFB0C220521284600F0E6FB0C220A217E
:10506000284600F0E1FB0820CDE912401194169487
:1050700004201794CDE9020414941020CDE90440D3
:10508000159406940002CDE90A4011A80994CDE9CF
:105090000E400894079410900C940D9402A802F00E
:1050A00018FC0121042002F08DFC18B0BDE8F08747
:1050B00010B5002A07D04FF0D04310F8014B5C54D4
:1050C000491C521EF7D110BD002A07D04FF0D04323
:1050D0005B5C491C00F8013B521EF7D17047000091
:1050E00000040240000C0240001002400014024084
:1050F0000018024030B501218DB0080200F04BFDD0
:105100000121084600F01FFD20200A9003208DF8A1
:105110002C0001258DF82F500AA9294800F010FB1A
:1051200000242804CDE9064006A8089402F04BFAB2
:105130008DF8044000948DF8054002940494214CAD
:105140008DF814506946204602F012FA0723012216
:105150000521204602F081FA0121204602F04AFA98
:105160000DB030BD10B5174C014607230122204673
:1051700002F073FA204602F0AAFA0221204602F059
:105180006EFB0028F9D02046BDE8104002F0D1BAED
:105190002DE9F04100250E4607462C4608E038462A
:1051A000FFF7E0FF0544052003F0FCFB641CE4B2BC
:1051B000B442F4D3B5FBF6F080B2BDE8F081000054
:1051C00000000240002001407CB50121202000F0B9
:1051D000BAFC01208DF8040003228DF8052000217F
:1051E0008DF80610074D4FF480748DF80700009479
:1051F0006946284600F0A4FA2146284600F007FB3D
:105200007CBD00000014024030B501218DB00802C1
:1052100000F0C1FC0121084600F095FC20200A9016
:1052200003208DF82C0001258DF82F500AA93C4849
:1052300000F086FA00242804CDE9064006A8089468
:1052400002F0C1F98DF8044000948DF805400294F5
:105250000494344C8DF814506946204602F088F9C5
:10526000072301221021204602F0F7F9012002F065
:10527000DAF90121204602F0BDF90DB030BD2DE96B
:10528000F0410A260025274F4FF010082C464146D2
:1052900007230122384602F0E0F9384602F017FAF7
:1052A0000221384602F0DBFA0028F9D0384602F035
:1052B00040FA15FA80F5052003F074FB641CE4B293
:1052C000B442E4D3B5FBF6F080B200EE100AB8EEBB
:1052D000400A10EE100A10F091FC9FED131B53ECE6
:1052E000112B10F0A3FA9FED121B53EC112B10F0B1
:1052F0009BFB9FED111B53EC112B10F0CFF89FED92
:10530000101B53EC112B10F021F89FED0F1B53ECE9
:10531000112B10F08BFA10F019FA00B2BDE8F081F1
:1053200000000240002001406666666666664A3FED
:1053300052B81E85EB51E83F7B14AE47E17A643FDB
:10534000000000000000394000000000000059404B
:1053500008B58DF800008DF801108DF802208DF849
:1053600003306946002002F0C4FD08BD08B58DF881
:1053700002208DF801108DF800308DF80300694689
:10538000002002F030FE08BD3EB5012141F6FF7459
:10539000080700F0F6FB012003F04EFA002003F0AE
:1053A0000FF945F25005A8422ED0012000F0C2FAB4
:1053B00004E0641CA4B20A2003F0F4FA412000F0D7
:1053C00081FA0028F5D00CB34FF4807000F069FB2F
:1053D000012000F07BFB7F200190FF200290002045
:1053E0000090684602F021FD002338223B2117205F
:1053F000FFF7AEFF0522062311460E20FFF7B6FF8A
:105400002946002003F0D4F800203EBD01203EBD17
:105410002DE9F0430D4681464FF4807687B01F4654
:1054200090460021304602F0E7FE65F3070468F37A
:105430000F2467F31744002565F31F648DF80C9063
:10544000B0050094CDE901506A463146284602F085
:1054500039FE3701384603F04CF97402204603F058
:10546000D6F90121384603F0F8F80121304602F060
:10547000C3FE8DF81450082004948DF81500012403
:105480008DF8164004A803F069F936482921017007
:10549000022141708170C47000F093F807B0BDE83C
:1054A000F0837CB504460D46002002F00CFF204638
:1054B00002F0E8FE284602F0F6FE4FF4804528464A
:1054C00003F017F92C02204603F0A1F90121284628
:1054D00003F0C3F8012002F0F6FE00208DF804006E
:1054E000082000948DF8050001248DF806406846D8
:1054F00003F034F91B4803210170022141708170CF
:10550000C47000F05EF87CBD10B54FF48074204686
:1055100003F0C1F8012805D1204603F0C7F812A016
:105520000FF0E8FABDE810404FF4003003F06FB917
:1055300010B54FF48064204603F0ADF8012809D17E
:10554000204603F0B3F80B49D1F8A80240B100207F
:10555000C1F8A802BDE810404FF4800003F057B92D
:105560000120F5E72C000020414C41524D20412103
:105570000D0A000000804242094880470948004760
:10558000FEE7FEE7FEE7FEE7FEE7FEE7FEE7FEE7F3
:10559000FEE7FEE704480549054A064B7047000050
:1055A000430700088901000878B6012078BC012073
:1055B00078B8012078B801202849084328490860B4
:1055C000704730B50F23C27801780125FAB1244A1B
:1055D000126801F1E02102F4E062C2F5E062C2F378
:1055E0000722C2F10404D3404278A24084781C40D0
:1055F0001443220181F80024007800F01F018D403F
:105600004009800000F1E020C0F8005130BD01F0F9
:105610001F0085404809800000F1E020C0F880515B
:1056200030BD104A114001430D48001F0160704712
:105630000B4A121D0029116801D0014300E081438B
:10564000116070474FF0E0210428086903D020F072
:1056500004000861704740F00400FAE70000FA0512
:105660000CED00E080FFFF1F774910B5884206D19E
:105670000121084600F099FA002101205BE07349FE
:10568000884206D10121022000F08FFA0021022079
:1056900051E06F49884206D10121042000F085FACB
:1056A0000021042047E06B49884206D101210820EF
:1056B00000F07BFA002108203DE06749884206D1CE
:1056C0000121102000F071FA0021102033E063491D
:1056D000884206D10121202000F067FA0021202015
:1056E00029E05F49884206D10121402000F05DFA9F
:1056F000002140201FE05B49884206D10121802023
:1057000000F053FA0021802015E05749884202D169
:10571000012184150AE05549884202D1012144152E
:1057200004E0534988420AD101210415204600F0C3
:105730003CFA00212046BDE8104000F036BA10BD0A
:10574000F0B5002201274FF0030C0B6807FA02F5B1
:105750002B40AB422CD1066853000CFA03F4A6434D
:1057600006600E79D0F800E09E4046EA0E0606601C
:105770000E79012E01D0022E12D18668A6438660D2
:105780004E79D0F808E09E4046EA0E0686604668EC
:10579000AE43466045688E799640B6B23543456063
:1057A000C568A543C560CC799C40C3681C43C460F0
:1057B000521C102AC9D3F0BD4FF6FF7101600021C1
:1057C000017141718171C171704708B541F4803236
:1057D0000092C261C1610099C161C169C069009054
:1057E00008BD0246002012690A4200D0012070471D
:1057F000006980B270470246002052690A4200D018
:1058000001207047406980B270470183704741832F
:1058100070470AB101837047418370474161704707
:1058200042694A40426170474B07DB0E9A40C90803
:1058300010B500EB8100016A0F249C40A143016276
:10584000016A1143016210BD0000024000040240E1
:1058500000080240000C0240001002400014024008
:1058600000180240001C02400020024000240240B8
:1058700000280240F848016841F001010160F64A41
:105880000021083211600268F44B1A400260031DC7
:10589000F34A1A60F04BF34A84331A60F04A103A24
:1058A0001B1D1A60026822F480220260EA480C3054
:1058B0000160181D01607047E7490022891C0A70C9
:1058C0000870704702460020510901290CD00229B6
:1058D0000CD0E1497431096802F01F0201239340A2
:1058E0000B4200D001207047DB49F4E7DA49703100
:1058F000F1E718B500204FF4A04400903120FFF7E5
:10590000E1FF0099491C0091A14201D00028F5D087
:105910003120FFF7D7FF002800D0012018BDCE4A64
:10592000116821F0F80141EAC00010607047CE49CB
:1059300008607047C849002270310A700A70012857
:1059400002D0042801D1052008707047C7490860BB
:10595000704741EA82115A0810B5C54B029C03EB0F
:1059600002421143014341EA0460BB49091D08603A
:1059700010BDBD4908667047800140EA0170B64914
:10598000843108607047B84988667047800140EAF2
:105990000160B14940EA0270883108607047B2493D
:1059A00008677047B049C8647047AB4B08331A6842
:1059B000084322F0EC62104318607047A64B08338E
:1059C0001A68084322F07842104318607047A24AD0
:1059D0000832116821F003010143116070479E48AD
:1059E0000830006800F00C0070479B4A08321168CC
:1059F00021F0F001014311607047974A08321168A5
:105A000021F4E051014311607047934A0832116854
:105A100021F4604141EAC0001060704770B58E4BC0
:105A200008331968934C11F00C0104D06610042956
:105A300003D0082903D004601BE0066019E0864A01
:105A4000121D1168C1F38055116801F03F0115B1B5
:105A5000B6FBF1F101E0B4FBF1F114681268C4F394
:105A600088146143C2F30142521C5200B1FBF2F1AF
:105A7000016019680F2202EA11117F4A545C016823
:105A8000E14041601C68072505EA9424145D21FA71
:105A900004F484601B6805EA5333D25CD140C160D2
:105AA00070BDC0F30121032908D16B4B083319687D
:105AB000724A21F4F81102400A431A6066497031B3
:105AC0000A68C0F30B0002430A6070476749443913
:105AD0000860704765494039086070476249C1F8FD
